:020000040800F2
:1000000000280020C5130008E9120008EF120008BC
:10001000F5120008FB1200080113000800000000A0
:1000200000000000000000000000000007130008AE
:1000300013130008000000001F1300082B13000812
:100040000D1400080D1400080D1400080D1400080C
:100050000D1400080D1400080D1400080D140008FC
:100060000D1400080D1400080D1400080D140008EC
:100070000D1400080D1400080D1400080D140008DC
:100080000D1400080D1400080D1400080D140008CC
:100090000D1400080D1400080D1400080D140008BC
:1000A0000D1400080D1400080D1400080D140008AC
:1000B000391300080D140008000000000D1400089A
:1000C0000D14000800000000000000000D140008DE
:1000D000000000000D1400080D14000800000000CE
:1000E0000D1400080D1400080D1400080000000095
:1000F0000000000000000000000000000000000000
:0C01000000000000000000005FF808F1A3
:10010C0010B5054C237833B9044B13B10448AFF345
:10011C0000800123237010BD780000200000000037
:10012C00482B000808B5034B1BB103490348AFF338
:10013C00008008BD000000007C000020482B000857
:10014C0080B582B000AF00237B6071E03C4A7B68D5
:10015C00134419783B4A7B6813440A461A700122EF
:10016C007B6802FA03F39BB21946374801F034FC62
:10017C0003461946324A7B6813440A461A70314AC0
:10018C007B6813441A782E497B680B441B789A427F
:10019C004BD12B4A7B6813441A782C497B680B444F
:1001AC001B789A4225D0264A7B6813441978274A33
:1001BC007B6813440A461A70244A7B6813441B78E4
:1001CC00002B32D1224A7B6852F82330184600F0BB
:1001DC00A3FE0346012B06D11D4A7B6852F823303F
:1001EC00184600F0A9FE1B4A7B68012142F8231037
:1001FC001BE0174A7B6852F82330184600F08CFE3F
:10020C000346012B11D1114A7B6813441B78002B38
:10021C000BD10F4A7B6852F82330184600F08CFE45
:10022C000D4A7B68012142F823107B6801337B6007
:10023C007B68022B8ADD00BF00BF0837BD4680BD3E
:10024C001C0100200C010020000C014020010020AA
:10025C001001002094000020A000002080B582B086
:10026C0000AF00237B6013E0012000F00FFE02467C
:10027C000B497B6841F82320094A7B6852F82330EC
:10028C004FF4FA71184600F035FE7B6801337B6041
:10029C007B68022BE8DD00BF00BF0837BD4680BD80
:1002AC001001002080B582B000AF00237B6046E0D7
:1002BC00274A7B6813441B78022B2AD0022B34DC90
:1002CC00002B02D0012B0CD02FE0786800F056F8F0
:1002DC000346002B2BD01E4A7B68134401221A7054
:1002EC0025E0786800F04AF80346002B05D1184A3F
:1002FC007B68134400221A701BE0786800F058F8F1
:10030C000346002B15D0124A7B68134402221A7044
:10031C000FE0786800F032F80346002B0BD10C4A42
:10032C007B68134400221A7005E000BF04E000BF94
:10033C0002E000BF00E000BF7B6801337B607B689C
:10034C00022BB5DD00BF00BF0837BD4680BD00BF26
:10035C002401002080B483B000AF0346FB71FB790D
:10036C00022B03D8FB79044AD35C00E00323184624
:10037C000C37BD4680BC70472401002080B483B08C
:10038C0000AF7860094A7B6852F82330012B06D104
:10039C00064A7B68002142F82310012300E0002369
:1003AC0018460C37BD4680BC704700BF9400002037
:1003BC0080B483B000AF7860094A7B6852F8233070
:1003CC00012B06D1064A7B68002142F82310012339
:1003DC0000E0002318460C37BD4680BC704700BFB8
:1003EC00A000002080B500AF8B4B1B78042B00F2D3
:1003FC00CB8001A252F823F0190400081F04000856
:10040C009B040008030500086B05000800F01CF9AC
:10041C00C9E0824B1B68184600F07EFD0346012B99
:10042C0006D17E4B1B68184600F086FD00F05EF985
:10043C000020FFF78FFF0346012B40F0A780764B7F
:10044C0002221A70764B1A78764B1A70764B002271
:10045C001A70754B01225A70714B1B78734AA2FBB0
:10046C000323DB08DAB2704B9A706F4B9B781A46F9
:10047C005201D21A9200D31A5B00DAB2684B1B7885
:10048C001344DAB2684BDA7000F044FC7EE000F002
:10049C00C1F9614B1B78002B7AD00020FFF75AFF73
:1004AC000346012B76D15C4B03221A70604B1A78F1
:1004BC005C4B1A705C4B00221A705B4B02225A7018
:1004CC005B4B1B78594AA2FB0323DB08DAB2564B71
:1004DC009A70554B9B781A465201D21A9200D31A35
:1004EC005B00DAB2524B1B781344DAB24E4BDA7023
:1004FC0000F010FC4EE000F0A9F9474B1B78002BE4
:10050C004AD00020FFF726FF0346012B46D1424B71
:10051C0004221A70474B1A78424B1A70424B002235
:10052C001A70414B03225A70424B1B783F4AA2FB74
:10053C000323DB08DAB23C4B9A703B4B9B781A4690
:10054C005201D21A9200D31A5B00DAB2394B1B78E3
:10055C001344DAB2344BDA7000F0DCFB1EE000F02E
:10056C0091F92D4B1B78002B1AD00020FFF7F2FECF
:10057C000346012B16D1284B01221A702E4B002258
:10058C001A7000F0C7FB0DE000BF0CE000BF0AE0E2
:10059C0000BF08E000BF06E000BF04E000BF02E0BF
:1005AC0000BF00E000BF254B1B68184600F0B4FCF0
:1005BC000346012B06D1214B1B68184600F0BCFCEE
:1005CC0000F0BAF91E4B1B68184600F0A5FC034658
:1005DC00012B1CD11A4B1B68184600F0ADFC194BB3
:1005EC001B781A46104B9B5C164A1278114618461B
:1005FC0000F058FA134B1B780133DAB2114B1A7016
:10060C00104B1B78032B02D90E4B00221A70FFF7EC
:10061C0049FE00BF80BD00BFAC00002038010020A7
:10062C000000002029010020B0000020CDCCCCCC53
:10063C000100002002000020AD000020300100204D
:10064C002C010020AE00002080B500AF1D4B1B68B4
:10065C00012B1FD100F0FEFBFFF700FE194B00220F
:10066C001A60FA2000F012FC0346174A13607D2032
:10067C0000F00CFC0346154A13604FF47A7000F03E
:10068C0005FC0346124A1360FA2000F0FFFB0346F8
:10069C00104A1360104B01221A70104B00221A7072
:1006AC000F4B00221A70002243F6A0710D4801F086
:1006BC00AAF900224FF6F0410B4801F0A4F900BF53
:1006CC0080BD00BF04000020300100202C01002060
:1006DC003801002034010020AC000020AD000020C7
:1006EC00AE00002000080140000C014080B500AFB6
:1006FC00424B1B78042B68D801A252F823F000BFA0
:10070C00210700083F0700085D0700088B07000859
:10071C00A9070008394B01221A70394B1A78394B4A
:10072C001A70394B1A78394B1A70012000F0A0FA64
:10073C0054E0344B1B78002B49D1304B02221A70F9
:10074C00334B1A782F4B1A70022000F091FA3EE0CE
:10075C002C4B1B78002B3CD12C4B1B78002B38D10D
:10076C00264B03221A70284B1A78264B1A70244BEE
:10077C001A78264B1A70032000F07AFA29E0234BE2
:10078C001B78002B27D11D4B04221A70204B1A7892
:10079C001E4B1A70042000F06BFA1CE0194B1B78EE
:1007AC00002B1AD1194B1B78002B16D1134B01229D
:1007BC001A70134B1A78134B1A70134B1A78134B7D
:1007CC001A70012000F054FA07E000BF06E000BFE9
:1007DC0004E000BF02E000BF00E000BF00F06EF8D4
:1007EC00084B1B78013BDAB2064B1A70074B1B788F
:1007FC00013BDAB2054B1A7000BF80BDAD00002082
:10080C00020000202A010020000000202801002006
:10081C000100002080B500AF00F0B2F80220FFF715
:10082C0099FD0346012B09D1054B1A78054B1A701B
:10083C00002000F0FFF8044B00221A7000BF80BDAE
:10084C002901002000000020AC00002080B500AF82
:10085C0000F096F80220FFF77DFD0346012B09D12D
:10086C00054B1A78054B1A70012000F0E3F8044B85
:10087C0000221A7000BF80BD290100200100002059
:10088C00AC00002080B500AF00F07AF80220FFF732
:10089C0061FD0346012B09D1054B1A78054B1A70E3
:1008AC00022000F0C7F8044B00221A7000BF80BD74
:1008BC002901002002000020AC00002080B400AF11
:1008CC00194B1B78194AA2FB0323DB08DAB2184B2D
:1008DC001A70174B1B781A465201D21A9200D31A6F
:1008EC005B00DAB2104B1B781344DAB2104B5A701F
:1008FC00104B1B780D4AA2FB0323DB08DAB20C4B1E
:10090C009A700B4B9B781A465201D21A9200D31A4A
:10091C005B00DAB2074B1B781344DAB2044BDA7083
:10092C0000BFBD4680BC70472A010020CDCCCCCC8A
:10093C00B00000202801002080B500AF20210E4817
:10094C0001F079F80D4B1B78042B0ED0042B10DC26
:10095C00022B02D0032B04D00BE0002000F0F8F99E
:10096C0008E0012000F0F4F904E0022000F0F0F9B6
:10097C0000E000BF00BF80BD00080140AC000020BB
:10098C0080B500AF0120FFF7E5FC0346012B02D038
:10099C00022B0ED02BE0234B1B780133DAB2214B08
:1009AC001A70204B1B78632B1ED91E4B00221A7019
:1009BC001AE01D4B1B68184600F0AEFA0346012BDB
:1009CC0014D1194B1B68184600F0B6FA154B1B785E
:1009DC000133DAB2134B1A70124B1B78632B05D907
:1009EC00104B00221A7001E000BF00E000BF0D4B5D
:1009FC001B780E4AA2FB0323DB08DAB20C4B9A706D
:100A0C000B4B9B781A465201D21A9200D31A5B00F8
:100A1C00DAB2044B1B781344DAB2054BDA7000BF20
:100A2C0080BD00BF2901002034010020CDCCCCCCEE
:100A3C00B000002080B483B000AF78607B68022BDC
:100A4C001BD07B68022B21DC7B68002B03D07B68DE
:100A5C00012B09D01AE0104B1A78104B1B78D31AC3
:100A6C00DAB20F4B1A7012E00D4B1A780B4B1B7845
:100A7C001344DAB2084B1A7009E0094B1A78074B89
:100A8C001B781344DAB2044B1A7000E000BF00BFAD
:100A9C000C37BD4680BC70470000002001000020D0
:100AAC000200002080B582B000AF03460A46FB71FD
:100ABC001346BB7100F016F8BB79102202FA03F34F
:100ACC009BB200221946064800F09DFF00F028F862
:100ADC00FB79184600F042F800BF0837BD4680BDD0
:100AEC00000C014080B582B000AF00237B600CE0AD
:100AFC0010227B6802FA03F39BB2012219460748C5
:100B0C0000F081FF7B6801337B607B68032BEFDD9A
:100B1C0000BF00BF0837BD4680BD00BF000C0140C0
:100B2C0080B582B000AF00237B600CE080227B6834
:100B3C0002FA03F39BB201221946074800F063FF47
:100B4C007B6801337B607B68062BEFDD00BF00BF49
:100B5C000837BD4680BD00BF0008014080B582B09B
:100B6C0000AF7860012240497B680B441B7813402E
:100B7C00DBB2002B0CBF01230023DBB21A46802111
:100B8C003A4800F040FF022237497B680B441B783F
:100B9C001340DBB2002B0CBF01230023DBB21A463F
:100BAC004FF48071314800F02EFF04222E497B68EF
:100BBC000B441B781340DBB2002B0CBF012300232A
:100BCC00DBB21A464FF40071284800F01CFF0822D3
:100BDC0025497B680B441B781340DBB2002B0CBF00
:100BEC0001230023DBB21A464FF480611F4800F04A
:100BFC000AFF10221C497B680B441B781340DBB2A4
:100C0C00002B0CBF01230023DBB21A464FF400610A
:100C1C00164800F0F8FE202213497B680B441B7821
:100C2C001340DBB2002B0CBF01230023DBB21A46AE
:100C3C004FF480510D4800F0E6FE40220A497B68D3
:100C4C000B441B781340DBB2002B0CBF0123002399
:100C5C00DBB21A464FF40051044800F0D4FE00BF3A
:100C6C000837BD4680BD00BF602B0008000801405E
:100C7C0080B582B000AF0346FB7100F04BF8FB79F6
:100C8C00013B032B3ED801A252F823F0A90C00081B
:100C9C00C30C0008DD0C0008F70C000800224FF410
:100CAC0080511B4800F0AFFE00224FF40051184851
:100CBC0000F0A9FE27E000224FF40061144800F078
:100CCC00A2FE00224FF40051114800F09CFE1AE0E5
:100CDC0000224FF480610E4800F095FE00224FF484
:100CEC0000410B4800F08FFE0DE000224FF48061B4
:100CFC00074800F088FE00224FF48041044800F0C1
:100D0C0082FE00E000BF00BF0837BD4680BD00BFBB
:100D1C00000C014080B582B000AF00237B600DE079
:100D2C004FF480627B6802FA03F39BB201221946EE
:100D3C00064800F068FE7B6801337B607B68052BFE
:100D4C00EEDD00BF00BF0837BD4680BD000C014082
:100D5C0080B582B000AF78607B68022B1FD07B68B7
:100D6C00022B27DC7B68002B03D07B68012B0BD07C
:100D7C0020E04FF48061124800F05DFE4FF400510A
:100D8C000F4800F058FE16E04FF400610C4800F0DC
:100D9C0052FE4FF480410A4800F04DFE0BE04FF438
:100DAC008051074800F047FE4FF40041044800F022
:100DBC0042FE00E000BF00BF0837BD4680BD00BF4B
:100DCC00000C014080B485B000AF786039607B685E
:100DDC00FB600AE03B689A68FB681B699B68D21A47
:100DEC003B689A60FB681B69FB60FB681B69002B06
:100DFC0006D0FB681B699A683B689B689A42E9DBE2
:100E0C00FB681A693B681A61FB683A681A613B68AF
:100E1C001B69002B08D03B681B6999683B689A6872
:100E2C003B681B698A1A9A6000BF1437BD4680BCA8
:100E3C00704780B485B000AF78607B681B69FB603D
:100E4C00FB681A697B681A6100BF1437BD4680BC09
:100E5C007047000080B584B000AF142001F0E6FDAF
:100E6C0003461A46084B1A60074B1B6800221A618E
:100E7C00054B1B681A460023136053609360D360C4
:100E8C0000BF1037BD4680BD3C01002090B589B035
:100E9C0000AF7860144B1B68FB607B683B617B6820
:100EAC007B610023BB61142001F0C0FD0346FB6194
:100EBC00FB691C4607F10C030FCB84E80F000A4BAF
:100ECC001B680A49FA6941F82320094B1B68F96928
:100EDC001846FFF777FF044B1B685A1C02490A603F
:100EEC0018462437BD4690BDF4000020B400002005
:100EFC003C01002080B483B000AF78603960054AB3
:100F0C007B6852F823303A685A6000BF0C37BD46F4
:100F1C0080BC7047B400002080B483B000AF786010
:100F2C00044A7B6852F82330DB6818460C37BD4600
:100F3C0080BC7047B400002080B582B000AF7860F0
:100F4C000E4A7B6852F823300022DA600B4A7B6829
:100F5C0052F8232009497B6851F8233052689A6073
:100F6C00074B1A6805497B6851F82330194610461F
:100F7C00FFF728FF00BF0837BD4680BDB400002036
:100F8C003C01002080B582B000AF1C4B1B681B6974
:100F9C007B607B689B68002B25DD194B1B68194A0D
:100FAC00136000F087FA0346154A13607B689B6850
:100FBC001946144B1A68124B1B68D31A0B441A4669
:100FCC007B689A600FE00D4B1B681B691B683B60CC
:100FDC000D4A3B6852F823300122DA60074B1B683C
:100FEC001846FFF726FF054B1B681B699B68002BF7
:100FFC00E9DD00BF00BF0837BD4680BD3C010020C5
:10100C00FC000020F8000020B400002080B500AFE8
:10101C0000F0F8F900F00CF800F092F800F044F849
:10102C00024801F04DF9FFF7DDF9FCE74001002023
:10103C0080B590B000AF07F11803282200211846A4
:10104C0001F0FCFC3B1D00221A605A609A60DA60C9
:10105C001A610223BB610123BB621023FB620023D4
:10106C007B6307F11803184600F0FEFC0346002BC7
:10107C0001D000F0D8F80F237B600023BB60002365
:10108C00FB6000233B6100237B613B1D0021184664
:10109C0000F06AFF0346002B01D000F0C4F800BF3B
:1010AC004037BD4680BD000080B586B000AF07F16B
:1010BC00080300221A605A609A60DA603B460022EC
:1010CC001A605A601D4B4FF080421A601B4B41F660
:1010DC003F725A60194B00229A60184B0922DA6051
:1010EC00164B00221A61154B00229A61134801F02D
:1010FC0097F80346002B01D000F095F84FF480537D
:10110C00BB6007F1080319460C4801F015FA0346B9
:10111C00002B01D000F087F800233B6000237B609C
:10112C003B461946054801F0EDFB0346002B01D068
:10113C0000F079F800BF1837BD4680BD4001002093
:10114C0080B586B000AF07F1080300221A605A6020
:10115C009A60DA60284B9B69274A43F00403936139
:10116C00254B9B6903F004037B607B68224B9B69D6
:10117C00214A43F0080393611F4B9B6903F008035A
:10118C003B603B68002243F6A0711C4800F03BFC1E
:10119C0000224FF6F0411A4800F035FC43F6A073DC
:1011AC00BB600123FB6000233B6102237B6107F1E1
:1011BC0008031946114800F095FA0723BB60002379
:1011CC00FB6001233B6107F1080319460C4800F052
:1011DC0089FA4FF6F043BB600123FB6000233B61AF
:1011EC0002237B6107F108031946054800F07AFADF
:1011FC0000BF1837BD4680BD0010024000080140FA
:10120C00000C014080B582B000AF78607B681B6831
:10121C00B3F1804F03D1FFF7B5FEFEF791FF00BF8E
:10122C000837BD4680BD80B400AF72B600BFFEE784
:10123C0080B485B000AF154B9B69144A43F0010391
:10124C009361124B9B6903F00103BB60BB680F4BAE
:10125C00DB690E4A43F08053D3610C4BDB6903F01E
:10126C0080537B607B680A4B5B68FB60FB6823F0F8
:10127C00E063FB60FB6843F08063FB60044AFB683F
:10128C00536000BF1437BD4680BC7047001002404D
:10129C000000014080B584B000AF78607B681B68AB
:1012AC00B3F1804F13D10C4BDB690B4A43F00103B4
:1012BC00D361094BDB6903F00103FB60FB6800227F
:1012CC0000211C2000F0D7F91C2000F0F0F900BF21
:1012DC001037BD4680BD00BF0010024080B400AF87
:1012EC00FEE780B400AFFEE780B400AFFEE780B449
:1012FC0000AFFEE780B400AFFEE780B400AF00BFE4
:10130C00BD4680BC704780B400AF00BFBD4680BCFA
:10131C00704780B400AF00BFBD4680BC704780B53D
:10132C0000AF00F0B5F800BF80BD000080B500AF85
:10133C00024801F011F800BF80BD00BF4001002041
:10134C0080B586B000AF7860144A154BD31A7B6118
:10135C007B693B61134B1B68002B02D1114B124A6A
:10136C001A60104B1A687B6813443A699A4207D288
:10137C0001F032FB03460C221A604FF0FF3309E0F8
:10138C00084B1B68FB60074B1A687B681344054AC3
:10139C001360FB6818461837BD4680BD0028002036
:1013AC000004000000010020A001002080B400AF68
:1013BC0000BFBD4680BC7047FFF7F8FF0B480C49D7
:1013CC000C4A002302E0D458C4500433C4188C4295
:1013DC00F9D3094A094C002301E013600432A242FC
:1013EC00FBD301F0FFFAFFF711FE7047000000205D
:1013FC0078000020982B0008780000209C01002029
:10140C00FEE7000080B500AF084B1B68074A43F0AD
:10141C0010031360032000F023F90F2000F008F8EC
:10142C00FFF706FF0023184680BD00BF00200240D6
:10143C0080B582B000AF7860124B1A68124B1B78E3
:10144C0019464FF47A73B3FBF1F3B2FBF3F318467E
:10145C0000F03BF90346002B01D001230EE07B6822
:10146C000F2B0AD8002279684FF0FF3000F003F9F7
:10147C00064A7B681360002300E0012318460837F6
:10148C00BD4680BD08000020100000200C0000208C
:10149C0080B400AF054B1B781A46054B1B681344F0
:1014AC00034A136000BFBD4680BC7047100000208B
:1014BC008801002080B400AF024B1B681846BD4663
:1014CC0080BC70478801002080B485B000AF786084
:1014DC007B6803F00703FB600C4BDB68BB60BA68EE
:1014EC004FF6FF031340BB60FB681A02BB68134343
:1014FC0043F0BF6343F40033BB60044ABB68D36062
:10150C0000BF1437BD4680BC704700BF00ED00E043
:10151C0080B400AF044BDB681B0A03F007031846CA
:10152C00BD4680BC704700BF00ED00E080B483B0C6
:10153C0000AF0346FB7197F90730002B0BDBFB79EF
:10154C0003F01F02064997F907305B09012000FAE6
:10155C0002F241F8232000BF0C37BD4680BC704717
:10156C0000E100E080B483B000AF03463960FB714A
:10157C0097F90730002B0ADB3B68DAB20C4997F974
:10158C0007301201D2B20B4483F800230AE03B6807
:10159C00DAB20849FB7903F00F03043B1201D2B213
:1015AC000B441A7600BF0C37BD4680BC704700BF99
:1015BC0000E100E000ED00E080B489B000AFF8601D
:1015CC00B9607A60FB6803F00703FB61FB69C3F148
:1015DC000703042B28BF0423BB61FB690433062BD0
:1015EC0002D9FB69033B00E000237B614FF0FF3223
:1015FC00BB6902FA03F3DA43BB681A407B699A4071
:10160C004FF0FF317B6901FA03F3D9437B680B4040
:10161C00134318462437BD4680BC704780B582B052
:10162C0000AF78607B68013BB3F1807F01D301236D
:10163C000FE00A4A7B68013B53600F214FF0FF30EB
:10164C00FFF790FF054B00229A60044B07221A60AB
:10165C00002318460837BD4680BD00BF10E000E0EF
:10166C0080B582B000AF78607868FFF72DFF00BFBF
:10167C000837BD4680BD80B586B000AF0346B96063
:10168C007A60FB7300237B61FFF742FF78617A6815
:10169C00B9687869FFF790FF024697F90F30114649
:1016AC001846FFF75FFF00BF1837BD4680BD80B5F9
:1016BC0082B000AF0346FB7197F907301846FFF76D
:1016CC0035FF00BF0837BD4680BD80B582B000AF86
:1016DC0078607868FFF7A2FF034618460837BD46C6
:1016EC0080BD000080B48BB000AF786039600023FF
:1016FC007B6200233B6248E101227B6A02FA03F31E
:10170C00FB613B681B68FA691340BB61BA69FB69F2
:10171C009A4240F037813B685B68A34A93425ED0A3
:10172C00A14A934275D8A14A934258D09F4A9342FA
:10173C006FD89F4A934252D09D4A934269D89D4A92
:10174C0093424CD09B4A934263D89B4A934246D0D7
:10175C00994A93425DD8122B2AD8122B59D801A240
:10176C0052F823F0EB170008C5170008D71700082C
:10177C00191800081F1800081F1800081F18000867
:10178C001F1800081F1800081F1800081F18000851
:10179C001F1800081F1800081F1800081F18000841
:1017AC001F1800081F180008CD170008E1170008C3
:1017BC00824A934213D02CE03B68DB683B6229E001
:1017CC003B68DB6804333B6224E03B68DB6808332E
:1017DC003B621FE03B68DB680C333B621AE03B6802
:1017EC009B68002B02D104233B6213E03B689B688F
:1017FC00012B05D108233B627B68FA691A6109E069
:10180C0008233B627B68FA695A6103E000233B6260
:10181C0000E000BFBB69FF2B01D87B6801E07B684F
:10182C0004337B61BB69FF2B02D87B6A9B0002E00F
:10183C007B6A083B9B003B617B691A680F213B6903
:10184C0001FA03F3DB431A40396A3B6901FA03F3EB
:10185C001A437B691A603B685B6803F08053002B6A
:10186C0000F09080564B9B69554A43F001039361FD
:10187C00534B9B6903F00103BB60BB68514A7B6A05
:10188C009B08023352F82330FB607B6A03F003039E
:10189C009B000F2202FA03F3DB43FA681340FB6050
:1018AC007B68494A93420DD07B68484A934207D0E3
:1018BC007B68474A934201D1022304E0032302E0F0
:1018CC00012300E000237A6A02F0030292009340A5
:1018DC00FA681343FB603B497B6A9B080233FA6846
:1018EC0041F823203B685B6803F48013002B06D07F
:1018FC00384B9A683749BB6913438B6006E0354B0C
:10190C009A68BB69DB43334913408B603B685B6867
:10191C0003F40013002B06D02E4BDA682D49BB695B
:10192C001343CB6006E02B4BDA68BB69DB432949D8
:10193C001340CB603B685B6803F40033002B06D08C
:10194C00244B5A682349BB6913434B6006E0214B77
:10195C005A68BB69DB431F4913404B603B685B68AB
:10196C0003F48033002B06D01A4B1A681949BB6953
:10197C0013430B6006E0174B1A68BB69DB43154930
:10198C0013400B607B6A01337B623B681A687B6A8D
:10199C0022FA03F3002B7FF4AFAE00BF00BF2C374D
:1019AC00BD4680BC704700BF0000321000003110F3
:1019BC000000221000002110000012100000111075
:1019CC00001002400000014000080140000C0140E2
:1019DC00001001400004014080B485B000AF786075
:1019EC000B467B807B689A687B881340002B02D067
:1019FC000123FB7301E00023FB73FB7B18461437B8
:101A0C00BD4680BC704780B483B000AF78600B4695
:101A1C007B8013467B707B78002B03D07A887B68A5
:101A2C001A6103E07B881A047B681A6100BF0C37CB
:101A3C00BD4680BC704780B485B000AF78600B4663
:101A4C007B807B68DB68FB607A88FB6813401A0438
:101A5C00FB68D9437B880B401A437B681A6100BF33
:101A6C001437BD4680BC704780B586B000AF786037
:101A7C007B68002B01D101236CE27B681B6803F0AF
:101A8C000103002B00F08780924B5B6803F00C0382
:101A9C00042B0CD08F4B5B6803F00C03082B12D17A
:101AAC008C4B5B6803F48033B3F5803F0BD1894BCF
:101ABC001B6803F40033002B6CD07B685B68002B35
:101ACC0068D1012346E27B685B68B3F5803F06D1A1
:101ADC00804B1B687F4A43F4803313602EE07B6895
:101AEC005B68002B0CD17B4B1B687A4A23F4803348
:101AFC001360784B1B68774A23F4802313601DE036
:101B0C007B685B68B3F5A02F0CD1724B1B68714AD4
:101B1C0043F4802313606F4B1B686E4A43F480338D
:101B2C0013600BE06B4B1B686A4A23F48033136021
:101B3C00684B1B68674A23F4802313607B685B68DF
:101B4C00002B13D0FFF7B6FC386108E0FFF7B2FCAE
:101B5C0002463B69D31A642B01D90323FAE15D4B8E
:101B6C001B6803F40033002BF0D014E0FFF7A2FC49
:101B7C00386108E0FFF79EFC02463B69D31A642BE0
:101B8C0001D90323E6E1534B1B6803F40033002B0C
:101B9C00F0D100E000BF7B681B6803F00203002B50
:101BAC0063D04C4B5B6803F00C03002B0BD0494B00
:101BBC005B6803F00C03082B1CD1464B5B6803F4E9
:101BCC008033002B16D1434B1B6803F00203002B10
:101BDC0005D07B681B69012B01D00123BAE13D4B79
:101BEC001B6823F0F8027B685B69DB0039491343FF
:101BFC000B603AE07B681B69002B20D0364B01222E
:101C0C001A60FFF757FC386108E0FFF753FC0246F7
:101C1C003B69D31A022B01D903239BE12D4B1B6883
:101C2C0003F00203002BF0D02A4B1B6823F0F802C0
:101C3C007B685B69DB00274913430B6015E0264B7F
:101C4C0000221A60FFF736FC386108E0FFF732FC1F
:101C5C0002463B69D31A022B01D903237AE11D4BAF
:101C6C001B6803F00203002BF0D17B681B6803F0A8
:101C7C000803002B3AD07B689B69002B19D0174BBB
:101C8C0001221A60FFF716FC386108E0FFF712FC1E
:101C9C0002463B69D31A022B01D903235AE10D4B9F
:101CAC005B6A03F00203002BF0D0012000F09AFADB
:101CBC001CE00A4B00221A60FFF7FCFB38610FE0B6
:101CCC00FFF7F8FB02463B69D31A022B08D9032312
:101CDC0040E100BF0010024000004242800442423A
:101CEC009E4B5B6A03F00203002BE9D17B681B68F7
:101CFC0003F00403002B00F0A6800023FB75974B28
:101D0C00DB6903F08053002B0DD1944BDB69934AB4
:101D1C0043F08053D361914BDB6903F08053BB607C
:101D2C00BB680123FB758E4B1B6803F48073002B7F
:101D3C0018D18B4B1B688A4A43F480731360FFF7EE
:101D4C00B9FB386108E0FFF7B5FB02463B69D31AD3
:101D5C00642B01D90323FDE0814B1B6803F48073D2
:101D6C00002BF0D07B68DB68012B06D17B4B1B6A08
:101D7C007A4A43F0010313622DE07B68DB68002B89
:101D8C000CD1764B1B6A754A23F001031362734B1B
:101D9C001B6A724A23F0040313621CE07B68DB6845
:101DAC00052B0CD16D4B1B6A6C4A43F00403136278
:101DBC006A4B1B6A694A43F0010313620BE0674BE1
:101DCC001B6A664A23F001031362644B1B6A634A65
:101DDC0023F0040313627B68DB68002B15D0FFF73C
:101DEC0069FB38610AE0FFF765FB02463B69D31AD1
:101DFC0041F28832934201D90323ABE0574B1B6A63
:101E0C0003F00203002BEED014E0FFF753FB386114
:101E1C000AE0FFF74FFB02463B69D31A41F28832C6
:101E2C00934201D9032395E04C4B1B6A03F0020348
:101E3C00002BEED1FB7D012B05D1484BDB69474ACA
:101E4C0023F08053D3617B68DB69002B00F0818029
:101E5C00424B5B6803F00C03082B61D07B68DB6999
:101E6C00022B46D13F4B00221A60FFF723FB38614F
:101E7C0008E0FFF71FFB02463B69D31A022B01D97E
:101E8C00032367E0354B1B6803F00073002BF0D184
:101E9C007B681B6AB3F5803F08D1304B5B6823F439
:101EAC0000327B689B682D4913434B602B4B5B685E
:101EBC0023F474127B68196A7B685B6A0B432749AD
:101ECC0013434B60274B01221A60FFF7F3FA38617A
:101EDC0008E0FFF7EFFA02463B69D31A022B01D94F
:101EEC00032337E01D4B1B6803F00073002BF0D06D
:101EFC002FE01C4B00221A60FFF7DCFA386108E077
:101F0C00FFF7D8FA02463B69D31A022B01D90323F7
:101F1C0020E0124B1B6803F00073002BF0D118E08B
:101F2C007B68DB69012B01D1012313E00B4B5B6850
:101F3C00FB60FB6803F480327B681B6A9A4206D113
:101F4C00FB6803F470127B685B6A9A4201D0012330
:101F5C0000E0002318461837BD4680BD0010024033
:101F6C00007000406000424280B584B000AF7860E1
:101F7C0039607B68002B01D10123D0E06A4B1B68D0
:101F8C0003F007033A689A4210D9674B1B6823F099
:101F9C00070265493B6813430B60634B1B6803F0F6
:101FAC0007033A689A4201D00123B8E07B681B68AA
:101FBC0003F00203002B20D07B681B6803F00403A2
:101FCC00002B05D0594B5B68584A43F4E0635360CF
:101FDC007B681B6803F00803002B05D0534B5B6830
:101FEC00524A43F460535360504B5B6823F0F00249
:101FFC007B689B684D4913434B607B681B6803F0FF
:10200C000103002B40D07B685B68012B07D1474B49
:10201C001B6803F40033002B15D101237FE07B6890
:10202C005B68022B07D1414B1B6803F00073002B3C
:10203C0009D1012373E03D4B1B6803F00203002B15
:10204C0001D101236BE0394B5B6823F003027B6801
:10205C005B68364913434B60FFF72CFAF8600AE0D3
:10206C00FFF728FA0246FB68D31A41F288329342F2
:10207C0001D9032353E02D4B5B6803F00C027B6802
:10208C005B689B009A42EBD1274B1B6803F007035C
:10209C003A689A4210D2244B1B6823F0070222495B
:1020AC003B6813430B60204B1B6803F007033A6833
:1020BC009A4201D0012332E07B681B6803F00403D1
:1020CC00002B08D0194B5B6823F4E0627B68DB685B
:1020DC00164913434B607B681B6803F00803002B05
:1020EC0009D0124B5B6823F460527B681B69DB00E0
:1020FC000E4913434B6000F021F802460B4B5B6812
:10210C001B0903F00F030A49CB5C22FA03F3094ABB
:10211C001360094B1B681846FFF78AF90023184611
:10212C001037BD4680BD00BF0020024000100240A9
:10213C006C2B0008080000200C00002080B487B035
:10214C0000AF0023FB600023BB6000237B610023F6
:10215C007B6000233B611E4B5B68FB60FB6803F0FC
:10216C000C03042B02D0082B03D027E0194B3B6146
:10217C0027E0FB689B0C03F00F03174AD35C7B60D2
:10218C00FB6803F48033002B10D0114B5B685B0CA5
:10219C0003F00103114AD35CBB607B680D4A02FB60
:1021AC0003F2BB68B2FBF3F37B6104E07B680C4A7F
:1021BC0002FB03F37B617B693B6102E0054B3B61F6
:1021CC0000BF3B6918461C37BD4680BC704700BF3A
:1021DC000010024000127A007C2B00088C2B0008A7
:1021EC0000093D0080B485B000AF78600A4B1B68D5
:1021FC000A4AA2FB03235B0A7A6802FB03F3FB6027
:10220C0000BFFB685A1EFA60002BF9D100BF00BF5B
:10221C001437BD4680BC704708000020D34D6210B7
:10222C0080B582B000AF78607B68002B01D10123B0
:10223C0041E07B6893F83D30DBB2002B06D17B6824
:10224C00002283F83C207868FFF724F87B68022290
:10225C0083F83D207B681A687B6804331946104666
:10226C0000F056FA7B68012283F846207B68012235
:10227C0083F83E207B68012283F83F207B68012293
:10228C0083F840207B68012283F841207B6801227F
:10229C0083F842207B68012283F843207B6801226B
:1022AC0083F844207B68012283F845207B68012257
:1022BC0083F83D20002318460837BD4680BD00003A
:1022CC0080B485B000AF78607B6893F83D30DBB2AA
:1022DC00012B01D0012335E07B68022283F83D20DD
:1022EC007B681B68DA687B681B6842F00102DA6065
:1022FC007B681B68164A934209D07B681B68B3F154
:10230C00804F04D07B681B68124A934211D17B68C2
:10231C001B689B6803F00703FB60FB68062B10D05F
:10232C007B681B681A687B681B6842F001021A60A4
:10233C0007E07B681B681A687B681B6842F0010227
:10234C001A60002318461437BD4680BC704700BF86
:10235C00002C01400004004080B584B000AF7860D0
:10236C007B681B68DB68FB607B681B681B69BB6058
:10237C00BB6803F00203002B20D0FB6803F00203C0
:10238C00002B1BD07B681B686FF002021A617B6804
:10239C0001221A777B681B689B6903F00303002BEF
:1023AC0003D0786800F098F905E0786800F08BF9B4
:1023BC00786800F09AF97B6800221A77BB6803F002
:1023CC000403002B20D0FB6803F00403002B1BD06C
:1023DC007B681B686FF004021A617B6802221A7713
:1023EC007B681B689B6903F44073002B03D07868EF
:1023FC0000F072F905E0786800F065F9786800F093
:10240C0074F97B6800221A77BB6803F00803002B71
:10241C0020D0FB6803F00803002B1BD07B681B68E3
:10242C006FF008021A617B6804221A777B681B68BC
:10243C00DB6903F00303002B03D0786800F04CF940
:10244C0005E0786800F03FF9786800F04EF97B6899
:10245C0000221A77BB6803F01003002B20D0FB6816
:10246C0003F01003002B1BD07B681B686FF010026D
:10247C001A617B6808221A777B681B68DB6903F496
:10248C004073002B03D0786800F026F905E07868DB
:10249C0000F019F9786800F028F97B6800221A77A7
:1024AC00BB6803F00103002B0CD0FB6803F00103A5
:1024BC00002B07D07B681B686FF001021A617868EB
:1024CC00FEF7A0FEBB6803F08003002B0CD0FB686A
:1024DC0003F08003002B07D07B681B686FF0800231
:1024EC001A61786800F06FFABB6803F04003002BA8
:1024FC000CD0FB6803F04003002B07D07B681B68F3
:10250C006FF040021A61786800F0F8F8BB6803F0CD
:10251C002003002B0CD0FB6803F02003002B07D00A
:10252C007B681B686FF020021A61786800F042FA31
:10253C0000BF1037BD4680BD80B584B000AF786059
:10254C0039600023FB737B6893F83C30012B01D17D
:10255C000223B4E07B68012283F83C207B680222D2
:10256C0083F83D207B681B689B68BB60BB6823F0CD
:10257C007703BB60BB6823F47F43BB607B681B683D
:10258C00BA689A603B681B68B3F5005F3ED0B3F540
:10259C00005F00F28780B3F5805F00F08680B3F5B2
:1025AC00805F7FD8702B1AD0702B7BD8602B50D0CB
:1025BC00602B77D8502B3CD0502B73D8402B58D055
:1025CC00402B6FD8302B64D0302B6BD8202B60D0A5
:1025DC00202B67D8002B5CD0102B5AD062E07B6884
:1025EC0018683B6899683B685A683B68DB6800F080
:1025FC006AF97B681B689B68BB60BB6843F0770318
:10260C00BB607B681B68BA689A604FE07B6818688F
:10261C003B6899683B685A683B68DB6800F053F983
:10262C007B681B689A687B681B6842F480429A60DE
:10263C003CE07B6818683B6859683B68DB681A4665
:10264C0000F0CAF87B681B685021184600F021F98D
:10265C002CE07B6818683B6859683B68DB681A4655
:10266C0000F0E8F87B681B686021184600F011F94F
:10267C001CE07B6818683B6859683B68DB681A4645
:10268C0000F0AAF87B681B684021184600F001F99D
:10269C000CE07B681A683B681B681946104600F012
:1026AC00F8F803E00123FB7300E000BF7B68012214
:1026BC0083F83D207B68002283F83C20FB7B184686
:1026CC001037BD4680BD80B483B000AF786000BFCA
:1026DC000C37BD4680BC704780B483B000AF7860C7
:1026EC0000BF0C37BD4680BC704780B483B000AFD0
:1026FC00786000BF0C37BD4680BC704780B483B097
:10270C0000AF786000BF0C37BD4680BC704700003E
:10271C0080B485B000AF786039607B681B68FB6063
:10272C007B682B4A934207D07B68B3F1804F03D070
:10273C007B68284A934208D1FB6823F07003FB6046
:10274C003B685B68FA681343FB607B68204A9342E2
:10275C0007D07B68B3F1804F03D07B681D4A93424E
:10276C0008D1FB6823F44073FB603B68DB68FA68B4
:10277C001343FB60FB6823F080023B685B691343E7
:10278C00FB607B68FA681A603B689A687B68DA625F
:10279C003B681A687B689A627B680D4A934203D146
:1027AC003B681A697B681A637B6801225A617B68F3
:1027BC001B6903F00103002B05D07B681B6923F018
:1027CC0001027B681A6100BF1437BD4680BC70479C
:1027DC00002C01400004004080B487B000AFF860CA
:1027EC00B9607A60FB681B6A7B61FB681B6A23F02B
:1027FC000102FB681A62FB689B693B613B6923F031
:10280C00F0033B617B681B013A6913433B617B69B5
:10281C0023F00A037B617A69BB6813437B61FB6815
:10282C003A699A61FB687A691A6200BF1C37BD4627
:10283C0080BC704780B487B000AFF860B9607A6034
:10284C00FB681B6A7B61FB681B6A23F01002FB6848
:10285C001A62FB689B693B613B6923F470433B61E3
:10286C007B681B033A6913433B617B6923F0A0032C
:10287C007B61BB681B017A6913437B61FB683A6916
:10288C009A61FB687A691A6200BF1C37BD4680BC2E
:10289C00704780B485B000AF786039607B689B6806
:1028AC00FB60FB6823F07003FB603A68FB68134322
:1028BC0043F00703FB607B68FA689A6000BF14372B
:1028CC00BD4680BC704780B487B000AFF860B9607B
:1028DC007A603B60FB689B687B617B6923F47F4378
:1028EC007B613B681A027B681A43BB6813437A69A5
:1028FC0013437B61FB687A699A6000BF1C37BD4645
:10290C0080BC704780B485B000AF786039607B685C
:10291C0093F83C30012B01D1022341E07B6801226A
:10292C0083F83C207B68022283F83D207B681B687F
:10293C005B68FB607B681B689B68BB60FB6823F073
:10294C007003FB603B681B68FA681343FB607B6891
:10295C001B68FA685A607B681B68144A934209D05A
:10296C007B681B68B3F1804F04D07B681B68104AEE
:10297C0093420CD1BB6823F08003BB603B685B685F
:10298C00BA681343BB607B681B68BA689A607B6843
:10299C00012283F83D207B68002283F83C20002331
:1029AC0018461437BD4680BC704700BF002C014050
:1029BC000004004080B483B000AF786000BF0C37D7
:1029CC00BD4680BC704780B483B000AF786000BF58
:1029DC000C37BD4680BC7047014B1868704700BF70
:1029EC001400002070B500260C4D0D4C641BA41077
:1029FC00A64209D100F0A2F800260A4D0A4C641B2D
:102A0C00A410A64205D170BD55F8043B9847013679
:102A1C00EEE755F8043B98470136F2E7902B000897
:102A2C00902B0008902B0008942B0008024B0146B9
:102A3C00186800F00BB800BF1400002003460244D5
:102A4C00934200D1704703F8011BF9E7F8B5CD1C90
:102A5C0025F0030508350C2D38BF0C25002D064636
:102A6C0001DBA94203D90C2333600020F8BD00F030
:102A7C0057F821490A6814469CB9204F3B6823B982
:102A8C002146304600F03CF838602946304600F0CC
:102A9C0037F8431C23D10C233046336000F046F842
:102AAC00E3E723685B1B17D40B2B03D923601C446F
:102ABC00256004E06368A2420CBF0B605360304693
:102ACC0000F034F804F10B00231D20F00700C21AAB
:102ADC00CCD01B1AA350C9E722466468CCE7C41CAF
:102AEC0024F00304A042E3D0211A304600F008F889
:102AFC000130DDD1CFE700BF040100200801002028
:102B0C0038B50023054D044608462B60FEF718FC2B
:102B1C00431C02D12B6803B1236038BD8C0100200B
:102B2C00014800F009B800BF94010020014800F0F2
:102B3C0004B800BF9401002070477047F8B500BF7F
:102B4C00F8BC08BC9E467047F8B500BFF8BC08BC82
:042B5C009E467047DA
:102B60003F065B4F666D7D077F6F00000000000031
:102B7000000000000102030406070809020304051F
:102B8000060708090A0B0C0D0E0F101001020000B9
:042B90003101000807
:042B94000D01000827
:102B9800050203000100000000127A001000000086
:102BA80001000000180000200000000000000000E4
:102BB800000000000000000000000000000000000D
:102BC80000000000000000000000000000000000FD
:102BD80000000000000000000000000000000000ED
:102BE80000000000000000000000000000000000DD
:102BF80000000000000000000000000000000000CD
:082C08000000000000000000C4
:04000005080013C517
:00000001FF
