:020000040800F2
:1000000000280020DD080008010800080708000893
:100010000D08000813080008190800080000000077
:100020000000000000000000000000001F080008A1
:100030002B080008000000003708000843080008EB
:1000400025090008250900082509000825090008D8
:1000500025090008250900082509000825090008C8
:1000600025090008250900082509000825090008B8
:1000700025090008250900082509000825090008A8
:100080002509000825090008250900082509000898
:100090002509000825090008250900082509000888
:1000A0002509000825090008250900082509000878
:1000B0005108000825090008000000002509000873
:1000C00025090008000000000000000025090008C4
:1000D00000000000250900082509000800000000B4
:1000E000250900082509000825090008000000006E
:1000F0000000000000000000000000000000000000
:0C01000000000000000000005FF808F1A3
:10010C0010B5054C237833B9044B13B10448AFF345
:10011C0000800123237010BD74000020000000003B
:10012C006020000808B5034B1BB103490348AFF32B
:10013C00008008BD0000000078000020602000084E
:10014C0080B582B000AF00237B6067E0374A7B68E4
:10015C0013441978364A7B6813440A461A700122F4
:10016C007B6802FA03F39BB21946324800F0C0FEDA
:10017C00034619462D4A7B6813440A461A702C4ACA
:10018C007B6813441A7829497B680B441B789A4284
:10019C0041D1264A7B6813441A7827497B680B4463
:1001AC001B789A421BD0214A7B6813441978224A47
:1001BC007B6813440A461A701F4A7B6813441B78E9
:1001CC00002B28D11D4A7B6852F82330184600F0CA
:1001DC001BF91B4A7B68134401221A701BE0134A5B
:1001EC007B6813441B78002B15D1144A7B6852F89A
:1001FC002330184600F0F8F80346012B0BD10F4AB8
:10020C007B6852F82330184600F0FEF80C4A7B68E5
:10021C00134402221A707B6801337B607B68022BCB
:10022C0094DD00BF00BF0837BD4680BDF80000203C
:10023C00E8000020000C0140FC000020EC00002035
:10024C000001002080B582B000AF00237B600BE082
:10025C004FF47A7000F094F8024607497B6841F835
:10026C0023207B6801337B607B68022BF0DD00BFB1
:10027C0000BF0837BD4680BDEC00002080B485B0BF
:10028C0000AF0346FB71FB79022B0CD8FB79094AB2
:10029C00D35CFB73FB7B002B03D0FB79054A00215D
:1002AC00D154FB7B00E0032318461437BD4680BCB9
:1002BC00704700BF0001002080B485B000AF7860AB
:1002CC0039607B68FB600AE03B689A68FB681B69D5
:1002DC009B68D21A3B689A60FB681B69FB60FB68E1
:1002EC001B69002B06D0FB681B699A683B689B68EE
:1002FC009A42E9DBFB681A693B681A61FB683A6849
:10030C001A613B681B69002B08D03B681B69996814
:10031C003B689A683B681B698A1A9A6000BF14375D
:10032C00BD4680BC704780B485B000AF78607B68F8
:10033C001B69FB60FB681A697B681A6100BF143784
:10034C00BD4680BC7047000080B584B000AF14205F
:10035C0001F0F8FD03461A46084B1A60074B1B6860
:10036C0000221A61054B1B681A4600231360536068
:10037C009360D36000BF1037BD4680BD04010020E0
:10038C0090B589B000AF7860144B1B68FB607B683C
:10039C003B617B687B610023BB61142001F0D2FDC3
:1003AC000346FB61FB691C4607F10C030FCB84E889
:1003BC000F000A4B1B680A49FA6941F82320094BC4
:1003CC001B68F9691846FFF777FF044B1B685A1C2A
:1003DC0002490A6018462437BD4690BDD000002063
:1003EC00900000200401002080B483B000AF78603E
:1003FC00044A7B6852F82330DB6818460C37BD463C
:10040C0080BC70479000002080B582B000AF78604F
:10041C000E4A7B6852F823300022DA600B4A7B6864
:10042C0052F8232009497B6851F8233052689A60AE
:10043C00074B1A6805497B6851F82330194610465A
:10044C00FFF73AFF00BF0837BD4680BD9000002083
:10045C000401002080B582B000AF1C4B1B681B69E7
:10046C007B607B689B68002B25DD194B1B68194A48
:10047C00136000F0ABFA0346154A13607B689B6867
:10048C001946144B1A68124B1B68D31A0B441A46A4
:10049C007B689A600FE00D4B1B681B691B683B6007
:1004AC000D4A3B6852F823300122DA60074B1B6877
:1004BC001846FFF738FF054B1B681B699B68002B20
:1004CC00E9DD00BF00BF0837BD4680BD0401002038
:1004DC00D8000020D40000209000002080B500AF90
:1004EC0000F01CFA00F030F800F0B6F800F068F8F4
:1004FC00124801F071F9FFF727FFFFF7A3FE4FF445
:10050C00FA60FFF73DFF03460D4A13600020FFF72A
:10051C00B5FE0346022BF9D1094B1B681846FFF7B1
:10052C0063FF0346012BF1D1054B1B681846FFF7FF
:10053C006BFF2021034800F00AFDE7E708010020CB
:10054C00000000200008014080B590B000AF07F11A
:10055C00180328220021184601F0FCFC3B1D002248
:10056C001A605A609A60DA601A610223BB61012337
:10057C00BB621023FB6200237B6307F11803184650
:10058C0000F0FEFC0346002B01D000F0D8F80F233E
:10059C007B600023BB600023FB6000233B610023D6
:1005AC007B613B1D0021184600F06AFF0346002BBF
:1005BC0001D000F0C4F800BF4037BD4680BD00003C
:1005CC0080B586B000AF07F1080300221A605A60AC
:1005DC009A60DA603B4600221A605A601D4B4FF05D
:1005EC0080421A601B4B41F63F725A60194B002235
:1005FC009A60184B1322DA60164B00221A61154BC5
:10060C0000229A61134801F097F80346002B01D0A1
:10061C0000F095F84FF48053BB6007F108031946BE
:10062C000C4801F015FA0346002B01D000F087F8B6
:10063C0000233B6000237B603B461946054801F0D4
:10064C00EDFB0346002B01D000F079F800BF183702
:10065C00BD4680BD0801002080B586B000AF07F113
:10066C00080300221A605A609A60DA60284B9B6972
:10067C00274A43F004039361254B9B6903F0040361
:10068C007B607B68224B9B69214A43F00803936192
:10069C001F4B9B6903F008033B603B68002243F649
:1006AC00A0711C4800F03BFC00224FF6F0411A48A8
:1006BC0000F035FC43F6A073BB600123FB60002304
:1006CC003B6102237B6107F108031946114800F0D6
:1006DC0095FA0723BB600023FB6001233B6107F104
:1006EC00080319460C4800F089FA4FF6F043BB603A
:1006FC000123FB6000233B6102237B6107F10803AC
:10070C001946054800F07AFA00BF1837BD4680BD7F
:10071C000010024000080140000C014080B582B07E
:10072C0000AF78607B681B68B3F1804F03D1FFF793
:10073C0091FEFFF705FD00BF0837BD4680BD80B4B4
:10074C0000AF72B600BFFEE780B485B000AF154BAA
:10075C009B69144A43F001039361124B9B6903F0AC
:10076C000103BB60BB680F4BDB690E4A43F080533F
:10077C00D3610C4BDB6903F080537B607B680A4BC5
:10078C005B68FB60FB6823F0E063FB60FB6843F095
:10079C008063FB60044AFB68536000BF1437BD469E
:1007AC0080BC7047001002400000014080B584B04E
:1007BC0000AF78607B681B68B3F1804F13D10C4B92
:1007CC00DB690B4A43F00103D361094BDB6903F08E
:1007DC000103FB60FB68002200211C2000F0D7F90C
:1007EC001C2000F0F0F900BF1037BD4680BD00BFE3
:1007FC000010024080B400AFFEE780B400AFFEE70B
:10080C0080B400AFFEE780B400AFFEE780B400AF69
:10081C00FEE780B400AF00BFBD4680BC704780B41B
:10082C0000AF00BFBD4680BC704780B400AF00BFB6
:10083C00BD4680BC704780B500AF00F0B5F800BF76
:10084C0080BD000080B500AF024801F011F800BF78
:10085C0080BD00BF0801002080B586B000AF786075
:10086C00144A154BD31A7B617B693B61134B1B6894
:10087C00002B02D1114B124A1A60104B1A687B687C
:10088C0013443A699A4207D201F032FB03460C2218
:10089C001A604FF0FF3309E0084B1B68FB60074BF5
:1008AC001A687B681344054A1360FB6818461837AE
:1008BC00BD4680BD0028002000040000DC000020A4
:1008CC006801002080B400AF00BFBD4680BC7047FB
:1008DC00FFF7F8FF0B480C490C4A002302E0D458F0
:1008EC00C4500433C4188C42F9D3094A094C002370
:1008FC0001E013600432A242FBD301F0FFFAFFF7D0
:10090C00EDFD70470000002074000020A4200008BA
:10091C007400002064010020FEE7000080B500AFE9
:10092C00084B1B68074A43F010031360032000F0C8
:10093C0023F90F2000F008F8FFF706FF00231846F4
:10094C0080BD00BF0020024080B582B000AF78604F
:10095C00124B1A68124B1B7819464FF47A73B3FB7F
:10096C00F1F3B2FBF3F3184600F03BF90346002B0E
:10097C0001D001230EE07B680F2B0AD80022796886
:10098C004FF0FF3000F003F9064A7B681360002338
:10099C0000E0012318460837BD4680BD0400002046
:1009AC000C0000200800002080B400AF054B1B7821
:1009BC001A46054B1B681344034A136000BFBD461F
:1009CC0080BC70470C0000205001002080B400AFA8
:1009DC00024B1B681846BD4680BC70475001002076
:1009EC0080B485B000AF78607B6803F00703FB60D0
:1009FC000C4BDB68BB60BA684FF6FF031340BB605F
:100A0C00FB681A02BB68134343F0BF6343F4003323
:100A1C00BB60044ABB68D36000BF1437BD4680BCC2
:100A2C00704700BF00ED00E080B400AF044BDB6802
:100A3C001B0A03F007031846BD4680BC704700BF75
:100A4C0000ED00E080B483B000AF0346FB7197F972
:100A5C000730002B0BDBFB7903F01F02064997F9DB
:100A6C0007305B09012000FA02F241F8232000BF95
:100A7C000C37BD4680BC704700E100E080B483B009
:100A8C0000AF03463960FB7197F90730002B0ADB86
:100A9C003B68DAB20C4997F907301201D2B20B4419
:100AAC0083F800230AE03B68DAB20849FB7903F0CB
:100ABC000F03043B1201D2B20B441A7600BF0C3761
:100ACC00BD4680BC704700BF00E100E000ED00E0D7
:100ADC0080B489B000AFF860B9607A60FB6803F04D
:100AEC000703FB61FB69C3F10703042B28BF042335
:100AFC00BB61FB690433062B02D9FB69033B00E0A5
:100B0C0000237B614FF0FF32BB6902FA03F3DA4337
:100B1C00BB681A407B699A404FF0FF317B6901FA40
:100B2C0003F3D9437B680B40134318462437BD4667
:100B3C0080BC704780B582B000AF78607B68013BA9
:100B4C00B3F1807F01D301230FE00A4A7B68013B9C
:100B5C0053600F214FF0FF30FFF790FF054B002241
:100B6C009A60044B07221A60002318460837BD46CA
:100B7C0080BD00BF10E000E080B582B000AF7860AF
:100B8C007868FFF72DFF00BF0837BD4680BD80B5E4
:100B9C0086B000AF0346B9607A60FB7300237B61BB
:100BAC00FFF742FF78617A68B9687869FFF790FFC0
:100BBC00024697F90F3011461846FFF75FFF00BF4A
:100BCC001837BD4680BD80B582B000AF0346FB71BF
:100BDC0097F907301846FFF735FF00BF0837BD46B9
:100BEC0080BD80B582B000AF78607868FFF7A2FF57
:100BFC00034618460837BD4680BD000080B48BB054
:100C0C0000AF7860396000237B6200233B6248E1CF
:100C1C0001227B6A02FA03F3FB613B681B68FA69E9
:100C2C001340BB61BA69FB699A4240F037813B685B
:100C3C005B68A34A93425ED0A14A934275D8A14AFD
:100C4C00934258D09F4A93426FD89F4A934252D0B6
:100C5C009D4A934269D89D4A93424CD09B4A9342F9
:100C6C0063D89B4A934246D0994A93425DD8122B43
:100C7C002AD8122B59D801A252F823F0030D0008E0
:100C8C00DD0C0008EF0C0008310D0008370D0008D2
:100C9C00370D0008370D0008370D0008370D000818
:100CAC00370D0008370D0008370D0008370D000808
:100CBC00370D0008370D0008370D0008370D0008F8
:100CCC00E50C0008F90C0008824A934213D02CE082
:100CDC003B68DB683B6229E03B68DB6804333B62C2
:100CEC0024E03B68DB6808333B621FE03B68DB6851
:100CFC000C333B621AE03B689B68002B02D1042347
:100D0C003B6213E03B689B68012B05D108233B62D7
:100D1C007B68FA691A6109E008233B627B68FA690F
:100D2C005A6103E000233B6200E000BFBB69FF2B6C
:100D3C0001D87B6801E07B6804337B61BB69FF2BC6
:100D4C0002D87B6A9B0002E07B6A083B9B003B61FC
:100D5C007B691A680F213B6901FA03F3DB431A40E4
:100D6C00396A3B6901FA03F31A437B691A603B68E1
:100D7C005B6803F08053002B00F09080564B9B690E
:100D8C00554A43F001039361534B9B6903F00103F4
:100D9C00BB60BB68514A7B6A9B08023352F8233014
:100DAC00FB607B6A03F003039B000F2202FA03F340
:100DBC00DB43FA681340FB607B68494A93420DD0D1
:100DCC007B68484A934207D07B68474A934201D1DB
:100DDC00022304E0032302E0012300E000237A6AEB
:100DEC0002F0030292009340FA681343FB603B4904
:100DFC007B6A9B080233FA6841F823203B685B68E6
:100E0C0003F48013002B06D0384B9A683749BB6922
:100E1C0013438B6006E0354B9A68BB69DB4333495F
:100E2C0013408B603B685B6803F40013002B06D007
:100E3C002E4BDA682D49BB691343CB6006E02B4B74
:100E4C00DA68BB69DB4329491340CB603B685B68BC
:100E5C0003F40033002B06D0244B5A682349BB699A
:100E6C0013434B6006E0214B5A68BB69DB431F49B7
:100E7C0013404B603B685B6803F48033002B06D057
:100E8C001A4B1A681949BB6913430B6006E0174BE0
:100E9C001A68BB69DB43154913400B607B6A01334D
:100EAC007B623B681A687B6A22FA03F3002B7FF49F
:100EBC00AFAE00BF00BF2C37BD4680BC704700BF33
:100ECC000000321000003110000022100000211030
:100EDC000000121000001110001002400000014030
:100EEC0000080140000C01400010014000040140CA
:100EFC0080B485B000AF78600B467B807B689A68C5
:100F0C007B881340002B02D00123FB7301E00023EC
:100F1C00FB73FB7B18461437BD4680BC704780B40E
:100F2C0083B000AF78600B467B8013467B707B7878
:100F3C00002B03D07A887B681A6103E07B881A0443
:100F4C007B681A6100BF0C37BD4680BC704780B40B
:100F5C0085B000AF78600B467B807B68DB68FB60FC
:100F6C007A88FB6813401A04FB68D9437B880B40D2
:100F7C001A437B681A6100BF1437BD4680BC7047AA
:100F8C0080B586B000AF78607B68002B01D101235F
:100F9C006CE27B681B6803F00103002B00F0878078
:100FAC00924B5B6803F00C03042B0CD08F4B5B68EB
:100FBC0003F00C03082B12D18C4B5B6803F48033C9
:100FCC00B3F5803F0BD1894B1B6803F40033002B26
:100FDC006CD07B685B68002B68D1012346E27B6890
:100FEC005B68B3F5803F06D1804B1B687F4A43F4A6
:100FFC00803313602EE07B685B68002B0CD17B4B3D
:10100C001B687A4A23F480331360784B1B68774A49
:10101C0023F4802313601DE07B685B68B3F5A02F7D
:10102C000CD1724B1B68714A43F4802313606F4BD5
:10103C001B686E4A43F4803313600BE06B4B1B68E8
:10104C006A4A23F480331360684B1B68674A23F4A5
:10105C00802313607B685B68002B13D0FFF7B6FC12
:10106C00386108E0FFF7B2FC02463B69D31A642BE7
:10107C0001D90323FAE15D4B1B6803F40033002B09
:10108C00F0D014E0FFF7A2FC386108E0FFF79EFCFB
:10109C0002463B69D31A642B01D90323E6E1534B77
:1010AC001B6803F40033002BF0D100E000BF7B6819
:1010BC001B6803F00203002B63D04C4B5B6803F0FE
:1010CC000C03002B0BD0494B5B6803F00C03082B73
:1010DC001CD1464B5B6803F48033002B16D1434B79
:1010EC001B6803F00203002B05D07B681B69012BE6
:1010FC0001D00123BAE13D4B1B6823F0F8027B6859
:10110C005B69DB00394913430B603AE07B681B6970
:10111C00002B20D0364B01221A60FFF757FC3861A8
:10112C0008E0FFF753FC02463B69D31A022B01D9A6
:10113C0003239BE12D4B1B6803F00203002BF0D023
:10114C002A4B1B6823F0F8027B685B69DB0027499C
:10115C0013430B6015E0264B00221A60FFF736FC98
:10116C00386108E0FFF732FC02463B69D31A022BC8
:10117C0001D903237AE11D4B1B6803F00203002BFA
:10118C00F0D17B681B6803F00803002B3AD07B6816
:10119C009B69002B19D0174B01221A60FFF716FC24
:1011AC00386108E0FFF712FC02463B69D31A022BA8
:1011BC0001D903235AE10D4B5B6A03F00203002BA8
:1011CC00F0D0012000F09AFA1CE00A4B00221A60C1
:1011DC00FFF7FCFB38610FE0FFF7F8FB02463B69B9
:1011EC00D31A022B08D9032340E100BF00100240A0
:1011FC0000004242800442429E4B5B6A03F00203B1
:10120C00002BE9D17B681B6803F00403002B00F072
:10121C00A6800023FB75974BDB6903F08053002BF2
:10122C000DD1944BDB69934A43F08053D361914BBE
:10123C00DB6903F08053BB60BB680123FB758E4BED
:10124C001B6803F48073002B18D18B4B1B688A4AE4
:10125C0043F480731360FFF7B9FB386108E0FFF7C4
:10126C00B5FB02463B69D31A642B01D90323FDE07D
:10127C00814B1B6803F48073002BF0D07B68DB6818
:10128C00012B06D17B4B1B6A7A4A43F00103136294
:10129C002DE07B68DB68002B0CD1764B1B6A754A02
:1012AC0023F001031362734B1B6A724A23F004038D
:1012BC0013621CE07B68DB68052B0CD16D4B1B6A41
:1012CC006C4A43F0040313626A4B1B6A694A43F08D
:1012DC00010313620BE0674B1B6A664A23F00103A0
:1012EC001362644B1B6A634A23F0040313627B682A
:1012FC00DB68002B15D0FFF769FB38610AE0FFF7BC
:10130C0065FB02463B69D31A41F28832934201D9FC
:10131C000323ABE0574B1B6A03F00203002BEED008
:10132C0014E0FFF753FB38610AE0FFF74FFB02466E
:10133C003B69D31A41F28832934201D9032395E0D9
:10134C004C4B1B6A03F00203002BEED1FB7D012BEF
:10135C0005D1484BDB69474A23F08053D3617B6846
:10136C00DB69002B00F08180424B5B6803F00C03BF
:10137C00082B61D07B68DB69022B46D13F4B0022E6
:10138C001A60FFF723FB386108E0FFF71FFB0246EA
:10139C003B69D31A022B01D9032367E0354B1B6839
:1013AC0003F00073002BF0D17B681B6AB3F5803F10
:1013BC0008D1304B5B6823F400327B689B682D4965
:1013CC0013434B602B4B5B6823F474127B68196AD4
:1013DC007B685B6A0B43274913434B60274B012205
:1013EC001A60FFF7F3FA386108E0FFF7EFFA0246EC
:1013FC003B69D31A022B01D9032337E01D4B1B6821
:10140C0003F00073002BF0D02FE01C4B00221A606D
:10141C00FFF7DCFA386108E0FFF7D8FA02463B69BF
:10142C00D31A022B01D9032320E0124B1B6803F0C3
:10143C000073002BF0D118E07B68DB69012B01D124
:10144C00012313E00B4B5B68FB60FB6803F48032F9
:10145C007B681B6A9A4206D1FB6803F470127B68A6
:10146C005B6A9A4201D0012300E00023184618372A
:10147C00BD4680BD0010024000700040600042423A
:10148C0080B584B000AF786039607B68002B01D1E7
:10149C000123D0E06A4B1B6803F007033A689A42B9
:1014AC0010D9674B1B6823F0070265493B6813434F
:1014BC000B60634B1B6803F007033A689A4201D038
:1014CC000123B8E07B681B6803F00203002B20D0DB
:1014DC007B681B6803F00403002B05D0594B5B6839
:1014EC00584A43F4E06353607B681B6803F00803BD
:1014FC00002B05D0534B5B68524A43F46053536046
:10150C00504B5B6823F0F0027B689B684D4913439A
:10151C004B607B681B6803F00103002B40D07B6899
:10152C005B68012B07D1474B1B6803F40033002B7E
:10153C0015D101237FE07B685B68022B07D1414BFF
:10154C001B6803F00073002B09D1012373E03D4BA2
:10155C001B6803F00203002B01D101236BE0394B14
:10156C005B6823F003027B685B68364913434B606E
:10157C00FFF72CFAF8600AE0FFF728FA0246FB683E
:10158C00D31A41F28832934201D9032353E02D4BF5
:10159C005B6803F00C027B685B689B009A42EBD1A2
:1015AC00274B1B6803F007033A689A4210D2244B6E
:1015BC001B6823F0070222493B6813430B60204B46
:1015CC001B6803F007033A689A4201D0012332E00A
:1015DC007B681B6803F00403002B08D0194B5B6875
:1015EC0023F4E0627B68DB68164913434B607B682D
:1015FC001B6803F00803002B09D0124B5B6823F423
:10160C0060527B681B69DB000E4913434B6000F092
:10161C0021F802460B4B5B681B0903F00F030A49C8
:10162C00CB5C22FA03F3094A1360094B1B6818467A
:10163C00FFF78AF9002318461037BD4680BD00BF5E
:10164C000020024000100240782000080400002016
:10165C000800002080B487B000AF0023FB6000239B
:10166C00BB6000237B6100237B6000233B611E4B2E
:10167C005B68FB60FB6803F00C03042B02D0082BA7
:10168C0003D027E0194B3B6127E0FB689B0C03F070
:10169C000F03174AD35C7B60FB6803F48033002B89
:1016AC0010D0114B5B685B0C03F00103114AD35C47
:1016BC00BB607B680D4A02FB03F2BB68B2FBF3F321
:1016CC007B6104E07B680C4A02FB03F37B617B6962
:1016DC003B6102E0054B3B6100BF3B6918461C3780
:1016EC00BD4680BC704700BF0010024000127A005B
:1016FC00882000089820000800093D0080B485B0BF
:10170C0000AF78600A4B1B680A4AA2FB03235B0AF2
:10171C007A6802FB03F3FB6000BFFB685A1EFA6099
:10172C00002BF9D100BF00BF1437BD4680BC7047F9
:10173C0004000020D34D621080B582B000AF7860F9
:10174C007B68002B01D1012341E07B6893F83D308D
:10175C00DBB2002B06D17B68002283F83C20786832
:10176C00FFF724F87B68022283F83D207B681A6817
:10177C007B6804331946104600F056FA7B68012248
:10178C0083F846207B68012283F83E207B68012287
:10179C0083F83F207B68012283F840207B6801227C
:1017AC0083F841207B68012283F842207B68012268
:1017BC0083F843207B68012283F844207B68012254
:1017CC0083F845207B68012283F83D2000231846CE
:1017DC000837BD4680BD000080B485B000AF78608E
:1017EC007B6893F83D30DBB2012B01D0012335E04F
:1017FC007B68022283F83D207B681B68DA687B6873
:10180C001B6842F00102DA607B681B68164A93423F
:10181C0009D07B681B68B3F1804F04D07B681B68D0
:10182C00124A934211D17B681B689B6803F0070333
:10183C00FB60FB68062B10D07B681B681A687B6802
:10184C001B6842F001021A6007E07B681B681A688B
:10185C007B681B6842F001021A600023184614379B
:10186C00BD4680BC704700BF002C01400004004006
:10187C0080B584B000AF78607B681B68DB68FB6068
:10188C007B681B681B69BB60BB6803F00203002B01
:10189C0020D0FB6803F00203002B1BD07B681B6875
:1018AC006FF002021A617B6801221A777B681B6851
:1018BC009B6903F00303002B03D0786800F098F9C0
:1018CC0005E0786800F08BF9786800F09AF97B688D
:1018DC0000221A77BB6803F00403002B20D0FB68AE
:1018EC0003F00403002B1BD07B681B686FF0040211
:1018FC001A617B6802221A777B681B689B6903F468
:10190C004073002B03D0786800F072F905E078681A
:10191C0000F065F9786800F074F97B6800221A779A
:10192C00BB6803F00803002B20D0FB6803F008030E
:10193C00002B1BD07B681B686FF008021A617B6858
:10194C0004221A777B681B68DB6903F00303002B06
:10195C0003D0786800F04CF905E0786800F03FF9A6
:10196C00786800F04EF97B6800221A77BB6803F0A8
:10197C001003002B20D0FB6803F01003002B1BD0AE
:10198C007B681B686FF010021A617B6808221A775B
:10199C007B681B68DB6903F44073002B03D0786809
:1019AC0000F026F905E0786800F019F9786800F085
:1019BC0028F97B6800221A77BB6803F00103002B1F
:1019CC000CD0FB6803F00103002B07D07B681B686D
:1019DC006FF001021A617868FEF7A0FEBB6803F095
:1019EC008003002B0CD0FB6803F08003002B07D086
:1019FC007B681B686FF080021A61786800F06FFAE0
:101A0C00BB6803F04003002B0CD0FB6803F04003D1
:101A1C00002B07D07B681B686FF040021A61786856
:101A2C0000F0F8F8BB6803F02003002B0CD0FB6827
:101A3C0003F02003002B07D07B681B686FF020029B
:101A4C001A61786800F042FA00BF1037BD4680BDBD
:101A5C0080B584B000AF786039600023FB737B687D
:101A6C0093F83C30012B01D10223B4E07B680122B6
:101A7C0083F83C207B68022283F83D207B681B683E
:101A8C009B68BB60BB6823F07703BB60BB6823F427
:101A9C007F43BB607B681B68BA689A603B681B68B5
:101AAC00B3F5005F3ED0B3F5005F00F28780B3F56D
:101ABC00805F00F08680B3F5805F7FD8702B1AD0E2
:101ACC00702B7BD8602B50D0602B77D8502B3CD010
:101ADC00502B73D8402B58D0402B6FD8302B64D060
:101AEC00302B6BD8202B60D0202B67D8002B5CD0F0
:101AFC00102B5AD062E07B6818683B6899683B6889
:101B0C005A683B68DB6800F06AF97B681B689B6865
:101B1C00BB60BB6843F07703BB607B681B68BA682B
:101B2C009A604FE07B6818683B6899683B685A6814
:101B3C003B68DB6800F053F97B681B689A687B682C
:101B4C001B6842F480429A603CE07B6818683B68F2
:101B5C0059683B68DB681A4600F0CAF87B681B685A
:101B6C005021184600F021F92CE07B6818683B687E
:101B7C0059683B68DB681A4600F0E8F87B681B681C
:101B8C006021184600F011F91CE07B6818683B686E
:101B9C0059683B68DB681A4600F0AAF87B681B683A
:101BAC004021184600F001F90CE07B681A683B688C
:101BBC001B681946104600F0F8F803E00123FB738C
:101BCC0000E000BF7B68012283F83D207B68002287
:101BDC0083F83C20FB7B18461037BD4680BD80B493
:101BEC0083B000AF786000BF0C37BD4680BC704737
:101BFC0080B483B000AF786000BF0C37BD4680BCAA
:101C0C00704780B483B000AF786000BF0C37BD461E
:101C1C0080BC704780B483B000AF786000BF0C37D5
:101C2C00BD4680BC7047000080B485B000AF7860C2
:101C3C0039607B681B68FB607B682B4A934207D03A
:101C4C007B68B3F1804F03D07B68284A934208D15C
:101C5C00FB6823F07003FB603B685B68FA68134316
:101C6C00FB607B68204A934207D07B68B3F1804FBE
:101C7C0003D07B681D4A934208D1FB6823F4407360
:101C8C00FB603B68DB68FA681343FB60FB6823F07E
:101C9C0080023B685B691343FB607B68FA681A60DF
:101CAC003B689A687B68DA623B681A687B689A6260
:101CBC007B680D4A934203D13B681A697B681A63AF
:101CCC007B6801225A617B681B6903F00103002BBE
:101CDC0005D07B681B6923F001027B681A6100BF89
:101CEC001437BD4680BC7047002C014000040040F6
:101CFC0080B487B000AFF860B9607A60FB681B6A8B
:101D0C007B61FB681B6A23F00102FB681A62FB68AB
:101D1C009B693B613B6923F0F0033B617B681B01D2
:101D2C003A6913433B617B6923F00A037B617A694F
:101D3C00BB6813437B61FB683A699A61FB687A69FB
:101D4C001A6200BF1C37BD4680BC704780B487B098
:101D5C0000AFF860B9607A60FB681B6A7B61FB6856
:101D6C001B6A23F01002FB681A62FB689B693B61DB
:101D7C003B6923F470433B617B681B033A69134353
:101D8C003B617B6923F0A0037B61BB681B017A6913
:101D9C0013437B61FB683A699A61FB687A691A6242
:101DAC0000BF1C37BD4680BC704780B485B000AF07
:101DBC00786039607B689B68FB60FB6823F070037C
:101DCC00FB603A68FB68134343F00703FB607B68D6
:101DDC00FA689A6000BF1437BD4680BC704780B467
:101DEC0087B000AFF860B9607A603B60FB689B68B5
:101DFC007B617B6923F47F437B613B681A027B68C0
:101E0C001A43BB6813437A6913437B61FB687A6995
:101E1C009A6000BF1C37BD4680BC704780B485B04B
:101E2C0000AF786039607B6893F83C30012B01D1AE
:101E3C00022341E07B68012283F83C207B6802226C
:101E4C0083F83D207B681B685B68FB607B681B68C4
:101E5C009B68BB60FB6823F07003FB603B681B68EE
:101E6C00FA681343FB607B681B68FA685A607B68EE
:101E7C001B68144A934209D07B681B68B3F1804FEE
:101E8C0004D07B681B68104A93420CD1BB6823F0CA
:101E9C008003BB603B685B68BA681343BB607B68BC
:101EAC001B68BA689A607B68012283F83D207B68C6
:101EBC00002283F83C20002318461437BD4680BC12
:101ECC00704700BF002C01400004004080B483B078
:101EDC0000AF786000BF0C37BD4680BC704780B443
:101EEC0083B000AF786000BF0C37BD4680BC704734
:101EFC00014B1868704700BF1000002070B5002619
:101F0C000C4D0D4C641BA410A64209D100F0A2F894
:101F1C0000260A4D0A4C641BA410A64205D170BDC4
:101F2C0055F8043B98470136EEE755F8043B9847C3
:101F3C000136F2E79C2000089C2000089C20000839
:101F4C00A0200008024B0146186800F00BB800BF37
:101F5C001000002003460244934200D1704703F85E
:101F6C00011BF9E7F8B5CD1C25F0030508350C2D40
:101F7C0038BF0C25002D064601DBA94203D90C23E2
:101F8C0033600020F8BD00F057F821490A68144668
:101F9C009CB9204F3B6823B92146304600F03CF8F1
:101FAC0038602946304600F037F8431C23D10C2307
:101FBC003046336000F046F8E3E723685B1B17D428
:101FCC000B2B03D923601C44256004E06368A242F8
:101FDC000CBF0B605360304600F034F804F10B007A
:101FEC00231D20F00700C21ACCD01B1AA350C9E73E
:101FFC0022466468CCE7C41C24F00304A042E3D05E
:10200C00211A304600F008F80130DDD1CFE700BFCF
:10201C00E0000020E400002038B50023054D044604
:10202C0008462B60FEF718FC431C02D12B6803B149
:10203C00236038BD54010020014800F009B800BFEE
:10204C005C010020014800F004B800BF5C010020D6
:10205C0070477047F8B500BFF8BC08BC9E46704787
:0C206C00F8B500BFF8BC08BC9E467047E9
:102078000000000000000000010203040607080930
:1020880002030405060708090A0B0C0D0E0F1010B1
:042098000102000041
:04209C003101000806
:0420A0000D01000826
:1020A400FFFFFFFF00127A00100000000100000093
:1020B40014000020000000000000000000000000E8
:1020C400000000000000000000000000000000000C
:1020D40000000000000000000000000000000000FC
:1020E40000000000000000000000000000000000EC
:1020F40000000000000000000000000000000000DC
:1021040000000000000000000000000000000000CB
:0421140000000000C7
:04000005080008DD0A
:00000001FF
